:100000001AC034C033C032C0BFC130C02FC02EC0F0
:100010002DC02CC02BC02AC047C028C027C0003725
:10002000003800360101010101010102040810201D
:1000300001030000000011241FBECFE5D2E0DEBFA7
:10004000CDBF10E0A0E6B0E0E4EBF6E002C0059022
:100050000D92A036B107D9F710E0A0E6B0E001C0DC
:100060001D92AB36B107E1F71FD322C3C9CFF89475
:1000700014BE98E191BD806481BDA89596B116B873
:1000800080B58F6080BD85B7877E806185BF85B76D
:10009000806285BF7894889585B78F7D85BF80B550
:1000A000807F80BD96B908951F920F920FB60F9270
:1000B00011248F9388E10FB6F89481BD11BC0FBE57
:1000C0008F910F900FBE0F901F9018951F93182FB0
:1000D00080E060E048D280E060E081D281E060E0D2
:1000E00042D281E060E07BD283E060E03CD283E0FA
:1000F00060E075D284E060E036D284E060E06FD2E8
:10010000812FB5DF80E062E02ED281E061E02BD26A
:1001100083E061E028D284E061E025D21F91089558
:1001200080E0D4DF84E061E05AD283E061E057D21E
:1001300064E670E080E090E070D184E060E04FD24F
:1001400083E060E04CD280E07FD2892BB1F464EF91
:1001500071E080E090E061D184E061E040D283E032
:1001600061E03DD264E670E080E090E056D184E04A
:1001700060E035D283E060E032D280E065D2109258
:100180006000892B19F481E08093600008950F933B
:100190001F9381E061E023D287E0C1D1182F092F9E
:1001A00081E060E01CD2812F902F1F910F91089564
:1001B000EEDF20E0805093400CF421E0822F089580
:1001C0000F931F9300E010E0F3DF81110F5F1F5FBB
:1001D0001A30D1F780E0063008F081E01F910F91CE
:1001E00008951F9380E030D220E0892B09F421E0AC
:1001F00080916000281711F481E026C020936000F0
:1002000010E0DEDF8823F9F084E061E0E8D16AE005
:1002100070E080E090E001D184E060E0E0D184E033
:1002200055DF84E061E0DBD16AE070E080E090E0DF
:10023000F4D084E060E0D3D184E048DF81E246DF9F
:100240001F5F1332F1F680E01F9108950F931F9303
:1002500010E0B6DF882309F490C084E061E0BFD1EC
:100260006AE070E080E090E0D8D084E060E0B7D150
:1002700086E02CDFB6DF882309F47FC01F5F1431CE
:1002800041F700E09DDF882309F477C010E084E0A7
:1002900061E0A5D162E070E080E090E0BED084E053
:1002A00060E09DD184E012DF1F5F143081F799DF99
:1002B000882309F462C00F5F053021F710E080DF6A
:1002C000882309F45AC084E061E089D183E061E0C9
:1002D00086D16AE070E080E090E09FD084E060E04A
:1002E0007ED183E060E07BD186E0F0DE7ADF882398
:1002F00009F443C01F5F153011F710E061DF882358
:10030000E1F184E061E06BD183E061E068D16AE013
:1003100070E080E090E081D084E060E060D16AE548
:1003200070E080E090E079D083E060E058D186E032
:10033000CDDE57DF882309F11F5F1431F9F640DF66
:100340008823D9F084E061E04AD183E061E047D1BD
:100350006AE070E080E090E060D084E060E03FD14F
:100360006AEE71E080E090E058D083E060E037D141
:1003700086E0ACDE36DF882311F71F910F910895D8
:1003800065DF81E2A3DE08951F920F920FB60F92F0
:1003900011242F933F938F939F93AF93BF9380919B
:1003A000650090916600A0916700B091680030915F
:1003B0006900232F2A5F2D3728F02D570396A11DA2
:1003C000B11D03C00296A11DB11D20936900809349
:1003D000650090936600A0936700B09368008091D9
:1003E000610090916200A0916300B0916400019659
:1003F000A11DB11D8093610090936200A0936300E2
:10040000B0936400BF91AF919F918F913F912F91D5
:100410000F900FBE0F901F9018959B01AC017FB7F6
:10042000F8948091610090916200A0916300B09176
:1004300064006FB508B602FE05C06F3F19F0019663
:10044000A11DB11D7FBFBA2FA92F982F8827860F16
:10045000911DA11DB11D63E0880F991FAA1FBB1F2D
:100460006A95D1F7BC012EC0FFB7F8948091610066
:1004700090916200A0916300B0916400EFB508B65E
:1004800002FE05C0EF3F19F00196A11DB11DFFBF8F
:10049000BA2FA92F982F88278E0F911DA11DB11D4E
:1004A000E3E0880F991FAA1FBB1FEA95D1F7861BAF
:1004B000970B885E9340C0F221503040404050403E
:1004C00068517C4F211531054105510569F60895A4
:1004D000789480B7806880BF80B7806480BF8CB517
:1004E00080648CBD8FEF8DBD80B7807F846080BFBE
:1004F00089B7846089BF83B7887F83BF8AB58C7FC3
:1005000081608ABD83B7877F83BF83B7887F82601E
:1005100083BF86B1887F836086B9379A0895482F54
:10052000863008F0465080916A0027B1382F329506
:10053000330F330F307C2F72322B90E08470907029
:1005400096958795969587958295807F382B37B9B4
:1005500087B1807F842B87B9369A3699FECF24B134
:1005600035B1C9010895282F30E0C901865D9F4F3C
:10057000FC0144912C5D3F4FF9018491882371F176
:10058000282F30E0F901E25EFF4FE491AE2FB0E09A
:10059000205E3F4FF9018491E82FF0E0662351F48B
:1005A0002FB7F8948C91942F909589238C93808108
:1005B00089230BC0623061F42FB7F8948C91942F8B
:1005C000909589238C938081842B80832FBF0895FD
:1005D0009FB7F8948C91842B8C939FBF0895282FFC
:1005E000482F50E0CA01865D9F4FFC0134914C5D5D
:1005F0005F4FFA019491992331F1222319F48AB5BE
:100600008F7304C0213021F48AB58F7C8ABD05C068
:10061000243019F48CB58F7C8CBDE92FF0E0E05EBE
:10062000FF4FE491F0E0662341F49FB7F894808196
:100630003095832380839FBF08959FB7F89480816E
:10064000832B80839FBF0895282F482F50E0CA0135
:10065000865D9F4FFC0194914C5D5F4FFA01349190
:10066000332319F420E030E01DC0222319F48AB5A9
:100670008F7304C0213021F48AB58F7C8ABD05C0F8
:10068000243019F48CB58F7C8CBDE32FF0E0EE5D47
:10069000FF4FE491F0E0808120E030E0892311F009
:1006A00021E030E0C901089513DF3ADD69DEFECFB5
:0406B000F894FFCFEC
:00000001FF
